:100000000C9499020C94C1020C94C1020C94C1028C
:100010000C94C1020C94C1020C94C1020C94C10254
:100020000C94C1020C94C1020C94140D0C94C60BD8
:100030000C94C1020C94C1020C94C1020C94C10234
:100040000C94C1020C94C1020C94C1020C94C10224
:100050000C94C1020C94C1020C94C1020C9455087A
:100060000C94C1020C94C1020C94C1020C94C10204
:100070000C94C1020C94C1020C94C1020C94C102F4
:100080000C94C1020C94C1020C94C1020C94C102E4
:100090000C94C1020C94C1020C94C1020C94C102D4
:1000A0000C94C1020C9406050C94C1025E0961090E
:1000B00054095809820982098209650969096D098B
:1000C0007309770982097D092000000000002104DE
:1000D00004040004220A0A000000230A0F0A0F0A7F
:1000E00024060D060B06250902040900260604094C
:1000F0000600270808000000280102020201290862
:10010000040404082A000A040A002B00040E040058
:100110002C00000004042D00000E00002E00000042
:1001200004002F020204080830040A0A0A043104F9
:100130000C040404320E0106080F330F01020906F5
:1001400034080A0A0F02350F0806010E3607080E9A
:10015000090E370F0102040438060906090639079B
:10016000090701013A00040004003B0004000404F4
:100170003C01020402013D000E000E003E0402019B
:1001800002043F060902000640070B0B0806410661
:1001900009090F09420E090E090E4307080808074E
:1001A000440E0909090E450F080E080F460F080EE8
:1001B00008084707080B09074809090F0909490EEC
:1001C0000404040E4A0F010109064B090A0C0A092E
:1001D0004C080808080F4D090F0F0F094E090D0BA9
:1001E0000B094F0609090906500E090E08085106A9
:1001F00009090603520E090E090953070806010EE4
:10020000540702020202550909090906560909099B
:100210000A0457090B0F0F0958090906090959095A
:10022000050204085A0F0204080F5B0302020203CE
:100230005C04040201015D0C0404040C5E040A0069
:1002400000005F000000000F600402000000610079
:100250000709070062080E090E006300070807007F
:100260006401070907006506090E07006603040E0E
:10027000040067000F090F0F68080E0909006906DE
:10028000000606006A02000404086B080B0E090051
:100290006C04040406006D000E0B0B006E000C0ACB
:1002A0000A006F000609060070000E090E087100B2
:1002B00007090701720003040400730003060E001F
:1002C0007404060402007500090907007600090A93
:1002D00004007700090B0600780009060900790080
:1002E000090D020C7A000F040F007B0302060203C3
:1002F0007C04040404047D0C0406040C7E050A003E
:1003000000000000000200080E0000030401000BC2
:1003100000000000000000000000000000000000DD
:1003200004080201104080401020408040800802F4
:10033000040180402010020110801020404004047D
:10034000040404030405020202020403020202027E
:100350000606060606060404020202040000000067
:100360002300260029002C002F000000000025009B
:1003700028002B002E003100000000002400270080
:100380002A002D00300000C18081C112010002024C
:1003900000004041233680000101020001120100EB
:1003A00002000000404123368000010102000118D4
:1003B00003410072006400750069006E006F002048
:1003C000004C004C004300220341007200640075A1
:1003D0000069006E006F0020004C0065006F006E29
:1003E000006100720064006F0004030904080B0040
:1003F00002020201000904000001020200000524BB
:100400000010010524010101042402060524060050
:10041000010705810310004009040100020A0000E1
:1004200000070502024000000705830240000000AB
:10043000000000000000002A2B280000000000003F
:100440000000000000000000000000000000002C80
:100450009EB4A0A1A2A434A6A7A5AE362D373827F6
:100460001E1F20212223242526B333B62EB7B89F82
:100470008485868788898A8B8C8D8E8F90919293C4
:100480009495969798999A9B9C9D2F3130A3AD3562
:100490000405060708090A0B0C0D0E0F10111213A4
:1004A0001415161718191A1B1C1DAFB1B0B5000989
:1004B000040200010300000009210101000122657E
:1004C000000705840340000105010902A10109019B
:1004D000A1008501050919012903150025019503CE
:1004E0007501810295017505810305010930093106
:1004F00009381581257F750895038106C0C005015F
:100500000906A1018502050719E029E71500250163
:100510007501950881029501750881039506750896
:10052000150025650507190029658100C0006A0EC0
:10053000B70F11241FBECFEFDAE0DEBFCDBF11E051
:10054000A0E0B1E0EEE3F0E202C005900D92A83623
:10055000B107D9F712E0A8E6B1E001C01D92AB31B6
:10056000B107E1F715E0C2E3D5E004C02297FE0130
:100570000E941910CE32D107C9F70E943B080C9493
:10058000EC0F0C9400001F93CF93DF931F92CDB715
:10059000DEB7182F682F80910E0199830E94BC0945
:1005A000109306019981909307010F90DF91CF91ED
:1005B0001F9108954F925F926F927F928F929F92B8
:1005C000AF92BF92CF92DF92EF92FF920F931F9361
:1005D000CF93DF93FC014B018A01000F111FC0E094
:1005E000D0E060E070E00E581E4F5B01A80CB91C13
:1005F00080819181A816B906BCF565307105A1F11D
:1006000038016C0E7D1ECA01412C512C7C01E40E78
:10061000F51E22813381E216F30614F5853091052B
:10062000FCF4C080D180EC9C9001ED9C300DFC9CD2
:10063000300D11242A0D3B1D220F331FE480F5805D
:10064000E20EF31ED701ED90FC909301240D351DB1
:10065000D901ED92FC920196B2E04B0E511CD6CF1F
:100660006F5F7F4F2A96C1CFDF91CF911F910F917E
:10067000FF90EF90DF90CF90BF90AF909F908F90C2
:100680007F906F905F904F900895E0EEF0E0808152
:1006900081608083F89468EC70E080E090E00E94D4
:1006A000CE0884B7877F84BF88E10FB6F894809323
:1006B0006000109260000FBE1092C1001092BF0047
:1006C0001092BE001092810010927100109285006D
:1006D0001092840019BC1092DF001092DE0010927C
:1006E000F9001092DD001092DA00EEE6F0E01082E0
:1006F00080E28093D80080E88093D70088E08093E0
:10070000D900108248E350E060E070E080E090E0C3
:10071000DC01E82FF42F0994089580910C010E94C8
:10072000F209019711F40C9445030895E1E6F0E015
:1007300080E8808381E08083F8941092C000E1EC2F
:10074000F0E0108288EC9EEF9093A7018093A601C1
:100750009093BF008093BE00808184608083E2E735
:10076000F0E0808184608083789408952F923F9296
:100770004F925F926F927F928F929F92AF92BF92B1
:10078000CF92DF92EF92FF920F931F93CF93DF935D
:1007900000D000D0CDB7DEB70E9496031092A5011D
:1007A0001092A40112E2612E11E0712E61E0F301BA
:1007B00080810E94830908EA802E01E0902E61E08A
:1007C000F40180810E94830980E2A82E81E0B82E86
:1007D00061E0F50180810E9483099EE1C92E91E0CC
:1007E000D92E61E0F60180810E9483092CE1E22E7E
:1007F00021E0F22E61E0F70180810E9483090AE185
:1008000011E061E0F80180810E94830961E0E8E184
:10081000F1E080810E94830936E1432E31E0532EBE
:1008200061E0F20180810E94830944E1242E41E0CD
:10083000342E61E0F10180810E94830922E131E0E0
:1008400061E0F901808129833A830E94830940E1B4
:1008500051E061E0FA0180814B835C830E9483094F
:1008600061E0EEE0F1E080810E94830960E0809128
:100870000C010E94830960E080910A010E948309B3
:1008800060E0F30180810E94BC0960E0F401808196
:100890000E94BC0960E0F50180810E94BC0960E013
:1008A000F60180810E94BC0960E0F70180810E940E
:1008B000BC0961E0F80180810E94BC0961E0E8E1C7
:1008C000F1E080810E94BC0961E0F20180810E9418
:1008D000BC0961E0F10180810E94BC0961E02981CD
:1008E0003A81F90180810E94BC0961E04B815C8101
:1008F000FA0180810E94BC0961E0EEE0F1E08081B4
:100900000E94BC090F900F900F900F90DF91CF9134
:100910001F910F91FF90EF90DF90CF90BF90AF901D
:100920009F908F907F906F905F904F903F902F900F
:100930000C948D030F931F93CF93DF938C0161E091
:1009400080911A010E94BC0961E0809118010E9407
:10095000BC0961E0809116010E94BC0961E08091B0
:1009600014010E94BC0961E0809112010E94BC093F
:100970008AE0809FE001819FD00D1124CE58DE4F88
:100980006881809122010E94BC096A818091A8013E
:100990000E94BC096C81809120010E94BC096E817B
:1009A00080911E010E94BC09688580911C010E94F3
:1009B000BC090115110521F460E080911A011BC0EA
:1009C0000130110521F460E08091180114C002305B
:1009D000110521F460E0809116010DC0033011056E
:1009E00021F460E08091140106C00430110549F43F
:1009F00060E080911201DF91CF911F910F910C94D3
:100A0000BC09DF91CF911F910F9108951F920F9212
:100A10000FB60F9211242F933F934F935F936F93D1
:100A20007F938F939F93AF93BF93EF93FF938091A7
:100A3000A6019091A7019093BF008093BE00809182
:100A4000A4019091A50165E070E00E9403100E944E
:100A50009A048091A4019091A5010196893C910589
:100A60002CF49093A5018093A40104C01092A501D9
:100A70001092A401FF91EF91BF91AF919F918F913F
:100A80007F916F915F914F913F912F910F900FBE8A
:100A90000F901F9018958530910588F46530710589
:100AA00070F425E0289FF001299FF00D1124E60F36
:100AB000F71FEE0FFF1FEE58FE4F118210820895B0
:100AC0000F931F93CF93DF9300E010E0C0E0D0E0DE
:100AD000BE01C8010E944B052196C530D105C1F762
:100AE0000F5F1F4F0530110589F7DF91CF911F91DF
:100AF0000F910895813419F480910C0104C082345F
:100B000021F480910A010C94F2098FEF9FEF089570
:100B1000CF93DF931F92CDB7DEB790EE980F9F353E
:100B200008F053C0282F332727FD3095A9014052E4
:100B3000510996E0949FF001959FF00D1124E85320
:100B4000FF4FE491F0E0E217F30709F03EC089831C
:100B50000E946005A2E7B1E06AE971E0898126E0C0
:100B60008202C001112420E030E02F5F3F4FF901E5
:100B7000E85FFF4FE80FF91FE491E3FB442740F9DA
:100B80004C9311961C921197E2FB442740F91A9658
:100B90004C931A971B961C921B97E1FB442740F934
:100BA00054964C93549755961C925597E1705E96C7
:100BB000EC935E975F961C925F97FB0111921192E6
:100BC000BF0112962530310581F60F90DF91CF914C
:100BD0000895CF92DF92EF92FF92CF93DF93EC01D3
:100BE0006B01EE24D7FCE094FE2C8991882339F028
:100BF0000E948805C701B6010E94CE08F6CFDF919A
:100C0000CF91FF90EF90DF90CF9008950F931F93B7
:100C1000CF93DF931F92CDB7DEB7082F162F972FF4
:100C2000813411F08C3459F4612F80911001998333
:100C30000E94BC09109308019981909309010F7ECD
:100C4000023441F4812F0F90DF91CF911F910F91CA
:100C50000C94C3020F90DF91CF911F910F910895D3
:100C600020910601309107012130310519F460E02F
:100C700070E002C061E070E00C940606CF93C82FCC
:100C8000813411F08C3479F42091080130910901FC
:100C90002130310519F460E070E002C061E070E0DD
:100CA0008C2F0E9406068C2F8F7E823421F48C2F8D
:100CB000CF910C943006CF910895FC01EA59FF4F73
:100CC00071836083FC0111821082FB01019000207E
:100CD000E9F73197E61BF70BDC01A859BF4FED93FD
:100CE000FC930895CF92DF92EF92FF920F931F93A0
:100CF000CF93DF93CDB7DEB76C970FB6F894DEBF16
:100D00000FBECDBF9C01DC010D911C91C80165E0B7
:100D100070E00E940310CB01F901E859FF4FE08019
:100D2000F180B7010E940310F901EA59FF4FC0801A
:100D3000D180F601E80FF91F6081DE015796E6E0E9
:100D40006E02B001112440E050E0685F7F4FFB016C
:100D5000E40FF51FE491ED934F5F5F4F463051056F
:100D6000B1F701968E159F0534F5B7010E94031067
:100D70008C0D9D1DDC018C91DE011196E6E08E024A
:100D8000C001112440E050E0885F9F4FFC01E40F58
:100D9000F51FE491ED934F5F5F4F46305105B1F77A
:100DA0006E01F8E1CF0ED11CCE010296F901AE0121
:100DB000435E5F4F0CC0DE011196E8ECF0E08491D9
:100DC0008D93319640E0EE3CF407C9F7E9CFD601A8
:100DD0007D916D01DC016D91CD0173FBFF24F0F875
:100DE000F282138272FBFF24F0F8F482158271FB09
:100DF000FF24F0F8F68217827170708711861386CF
:100E0000128663FB772770F97487158662FB772754
:100E100070F97687178661FB772770F9708B118AD6
:100E20006170628B138A158A148A7496C416D5066B
:100E300071F68AE090E09A8B898B65E070E07C8B9C
:100E40006B8B2E5F3F4F3E8B2D8BC8010E94031092
:100E500040E050E0BC01CE0141960E94DA026C965F
:100E60000FB6F894DEBF0FBECDBFDF91CF911F91BB
:100E70000F91FF90EF90DF90CF9008959F92AF92E7
:100E8000BF92CF92DF92EF92FF920F931F93CF9377
:100E9000DF93EC01A12CB12C8C0108591F4F85E088
:100EA000982E6B01EE24D7FCE094FE2CF8012081F3
:100EB0003181929EC001939E900D1124A816B9060F
:100EC000ECF4CE010E947206888199810196998383
:100ED0008883F80140815181949E9001959E300D48
:100EE00011248217930714F019821882C701B601E2
:100EF0000E94CE08FFEFAF1ABF0AD8CFDF91CF9183
:100F00001F910F91FF90EF90DF90CF90BF90AF9027
:100F10009F9008950F931F93CF93DF93CDB7DEB7C4
:100F2000CA56D1090FB6F894DEBF0FBECDBF6EE230
:100F300071E0CE0101960E945D0662E370E0CE0191
:100F400001960E943E0766E470E080E090E00E9417
:100F5000CE086AE371E0CE0101960E945D0662E36D
:100F600070E0CE0101960E943E0764E670E082E4E4
:100F700091E00E94E90580910C010E94F20901971D
:100F800009F44EC082E40E947A058130910529F46B
:100F900090936901809368013CC0809168019091B1
:100FA00069010197B1F50E949F0860936E017093EB
:100FB0006F01809370019093710100916A0110910B
:100FC0006B0120916C0130916D01DC01CB01801B24
:100FD000910BA20BB30B0B97A105B105D0F081E4E7
:100FE0000E943E0682E40E94300680916E0190913C
:100FF0006F01A0917001B091710180936A0190938B
:101000006B01A0936C01B0936D0110926901109275
:10101000680162E370E080E090E00E94CE08ABCF10
:10102000C659DF4F0FB6F894DEBF0FBECDBFDF91BC
:10103000CF911F910F9108950E94B60310926A01FB
:1010400010926B0110926C0110926D0110926E0162
:1010500010926F011092700110927101109269014B
:101060001092680161E070E08CE40E94060681E065
:1010700090E00C94C3020E94F40883EB91E00E947C
:10108000F60C60E070E08CE40E94060680E090E0E0
:101090000E94C3020E941C08C0E0D0E00E948A07A0
:1010A0002097E1F30E940000F9CF1F920F920FB634
:1010B0000F9211242F933F938F939F93AF93BF93DE
:1010C0008091AB019091AC01A091AD01B091AE01C6
:1010D0003091AA0123E0230F2D3720F40196A11DA2
:1010E000B11D05C026E8230F0296A11DB11D209356
:1010F000AA018093AB019093AC01A093AD01B09392
:10110000AE018091AF019091B001A091B101B09179
:10111000B2010196A11DB11D8093AF019093B00162
:10112000A093B101B093B201BF91AF919F918F9104
:101130003F912F910F900FBE0F901F9018952FB7D2
:10114000F8946091AB017091AC018091AD019091E8
:10115000AE012FBF08953FB7F8948091AF019091F1
:10116000B001A091B101B091B20126B5A89B05C014
:101170002F3F19F00196A11DB11D3FBF6627782FA3
:10118000892F9A2F620F711D811D911D42E0660FFC
:10119000771F881F991F4A95D1F70895CF92DF9244
:1011A000EF92FF92CF93DF936B017C010E94AB081B
:1011B000EB01C114D104E104F10479F00E94AB0801
:1011C0006C1B7D0B683E7340A0F381E0C81AD10808
:1011D000E108F108C851DC4FECCFDF91CF91FF90CF
:1011E000EF90DF90CF900895789484B5826084BDAD
:1011F00084B5816084BD85B5826085BD85B581601B
:1012000085BDEEE6F0E0808181608083E1E8F0E07A
:101210001082808182608083808181608083E0E8A9
:10122000F0E0808181608083E1E9F0E0808182608C
:101230008083808181608083E0E9F0E0808181604B
:101240008083E1ECF0E08081846080838081826033
:101250008083808181608083E3ECF0E08081816025
:101260008083E0ECF0E0808182608083E2ECF0E05B
:10127000808181608083EAE7F0E080818460808300
:1012800080818260808380818160808380818068AA
:101290008083089590E0FC013197EE30F10590F5E0
:1012A000EA5AFF4F0C941710809180008F7703C08B
:1012B000809180008F7D80938000089584B58F7722
:1012C00002C084B58F7D84BD0895809190008F7792
:1012D00007C0809190008F7D03C080919000877F30
:1012E0008093900008958091C0008F7703C0809113
:1012F000C0008F7D8093C00008958091C200877FD9
:101300008093C2000895CF93DF9390E0FC01E05EEC
:10131000FC4F2491FC01E25CFC4F8491882349F14D
:1013200090E0880F991FFC01E858FC4FA591B491FB
:1013300086599C4FFC01C591D4919FB7611108C09B
:10134000F8948C91209582238C93888182230AC003
:10135000623051F4F8948C91322F309583238C9322
:101360008881822B888304C0F8948C91822B8C9383
:101370009FBFDF91CF9108950F931F93CF93DF937A
:101380001F92CDB7DEB7282F30E0F901EE5FFC4F9A
:101390008491F901E05EFC4F1491F901E25CFC4F8D
:1013A00004910023C9F0882321F069830E944A092F
:1013B0006981E02FF0E0EE0FFF1FE659FC4FA59189
:1013C000B4919FB7F8948C91611103C0109581235B
:1013D00001C0812B8C939FBF0F90DF91CF911F9104
:1013E0000F910895CF93DF93282F30E0F901EE5F3E
:1013F000FC4F8491F901E05EFC4FD491F901E25C6D
:10140000FC4FC491CC2391F081110E944A09EC2F2A
:10141000F0E0EE0FFF1FE45AFC4FA591B4912C9120
:101420002D2381E090E021F480E002C080E090E094
:10143000DF91CF910895615030F02091F100FC01CF
:1014400020830196F8CF289884E68093BA01089506
:101450002FB7FC012083F89467706093E90008952A
:10146000CF93DF931F92CDB7DEB7682FCE010196E1
:101470000E94280A8091F20099819FBF0F90DF910E
:10148000CF910895FF920F931F93CF93DF9300D0D6
:10149000CDB7DEB7F62E8A019091B901992311F0EC
:1014A00057FF03C08FEF9FEF2BC0682FCE0101962F
:1014B0007A830E94280A8091F20090E0A8017A8144
:1014C000801791070CF4AC01EF2DF72FF40E84E692
:1014D000FE1639F028988093BA019091F10091930B
:1014E000F7CF4115510521F08091F200882321F0BA
:1014F00089818FBFCA0104C08BE68093E800F8CFD2
:101500000F900F90DF91CF911F910F91FF90089551
:10151000CF93DF931F92CDB7DEB741E050E0BE011D
:101520006F5F7F4F0E94420A019719F4898190E012
:1015300002C08FEF9FEF0F90DF91CF910895CF936F
:10154000DF931F92CDB7DEB7682FCE0101960E94C0
:10155000280A9091E800892F807295FF04C090912D
:10156000F20080E4891B99819FBF0F90DF91CF919A
:1015700008954F925F926F927F928F929F92AF9257
:10158000BF92CF92DF92EF92FF920F931F93CF9370
:10159000DF931F92CDB7DEB7582E7B01A42E952E78
:1015A0008091B901882369F0042F152F8AEFB82E96
:1015B000852D8072782E9AE3892E852D8074682E71
:1015C00011C08FEF9FEF53C0852D0E949F0A482EB8
:1015D00081110CC0BA94A9F361E070E080E090E062
:1015E0000E94CE080115110579F737C0282F30E089
:1015F000021713070CF4402EC42CD12C0C191D0912
:10160000652DCE0101960E94280A772039F04A9470
:101610008FEF4816B1F01092F100F9CFF701842D49
:1016200057FE07C0815058F094919093F100319685
:10163000F9CF815020F091919093F100FACFEC0C0A
:10164000FD1C8091E80085FF0FC00115110511F404
:1016500061100AC089818FBFC5CF5D9884E68093F1
:10166000BB018A2D992D03C08092E800F3CF0F9023
:10167000DF91CF911F910F91FF90EF90DF90CF906E
:10168000BF90AF909F908F907F906F905F904F90A2
:1016900008951092E9001092B8011092B70190934A
:1016A000B6018093B5010895CF93DF93FB0120E04D
:1016B00030E0DEEF24173507A1F187FF02C0C491A7
:1016C00001C0C081A091B701B091B8016091B5018E
:1016D0007091B601A617B707B4F49091E800957021
:1016E000E1F39091E80092FD1EC0C093F10060917B
:1016F000B7017091B8016F5F7F4F6F737727672BCA
:1017000011F4D093E8006091B7017091B8016F5F58
:101710007F4F7093B8016093B7012F5F3F4F3196B1
:10172000C9CFC90102C08FEF9FEFDF91CF9108951C
:101730001F93CF93DF931F92CDB7DEB7162F209163
:10174000E80022FFFCCF612F79830E941B0A8BEFF8
:101750008093E800812F7981972F0F90DF91CF91AF
:101760001F910895CF93DF931F92CDB7DEB71982F3
:10177000CE0101960E94080ECE0101960E949F0E96
:10178000898190E00F90DF91CF9108951F920F9281
:101790000FB60F921124EF92FF920F931F932F9386
:1017A0003F934F935F936F937F938F939F93AF93E9
:1017B000BF93EF93FF93CF93DF93CDB7DEB76297DD
:1017C000DEBFCDBF1092E9008091E80083FFE7C043
:1017D00068E0CE010A960E941B0A82EF8093E8001F
:1017E0009A8597FF05C08091E80080FFFCCF03C079
:1017F0008EEF8093E800892F807609F0B5C08B8545
:10180000811105C01092F1001092F100C1C0282F83
:101810002D7F213009F4BCC0853049F48091E80067
:1018200080FFFCCF8C8580688093E300B1C0863058
:1018300009F072C02D85E888F988223071F580E0C2
:1018400090E02A8B0E94490B0E94B20B99E08E0116
:101850000F5F1F4FF801392F11923A95E9F79983DD
:101860002A892A8391E09E8390E898879AEF998746
:101870002091B7013091B801275F3F4F3C832B8304
:101880008D83C7010E94490B49E050E0B80180E018
:101890000E94540B0E94B20B7BC0C7012A8B0E948E
:1018A000490B2A89223241F482E290E00E94AA0E7A
:1018B000892B09F06DC070C0213069F4888999893D
:1018C000089711F42093B4018091B401882389F022
:1018D0006BE873E016C0233009F05EC08C85882366
:1018E00059F0823061F0813009F056C06FEA73E040
:1018F00008C06DE973E005C069EE73E002C067ECF3
:1019000073E06115710509F447C0FB01449150E093
:1019100080E80E94540B3CC0873009F43DC08830F9
:1019200021F481E08093F10033C0893089F5937010
:1019300099F5E7E8F3E081E021E096E38093E900A0
:101940002093EB0034913093EC009093ED008F5F87
:101950003196853099F78EE78093EA001092EA007D
:101960008C858093B90114C0888999890E94490B9C
:101970008E85811105C0CE010A960E94130E06C005
:10198000823051F4CE010A960E94D20E882321F0B3
:101990008EEF8093E80003C081E28093EB006296B3
:1019A0000FB6F894DEBF0FBECDBFDF91CF91FF9190
:1019B000EF91BF91AF919F918F917F916F915F91C7
:1019C0004F913F912F911F910F91FF90EF900F90AA
:1019D0000FBE0F901F9018958093E9008091F20040
:1019E000882319F08AE38093E80008951092B901E2
:1019F00081E08093D70080EA8093D80082E189BD9E
:101A000009B400FEFDCF61E070E080E090E00E944C
:101A1000CE0880E98093D8008CE08093E200109299
:101A2000E000559A209A08951F920F920FB60F92D8
:101A300011242F933F934F935F936F937F938F93D3
:101A40009F93AF93BF93EF93FF938091E100109228
:101A5000E10083FF0FC01092E90091E09093EB004A
:101A60001092EC0092E39093ED001092B90198E08F
:101A70009093F00082FF26C083E00E94EC0C82E08D
:101A80000E94300A882321F08CEB91E00E94BA0D6D
:101A90008091BB01882339F08091BB0181508093F4
:101AA000BB01882369F08091BA01882359F08091A5
:101AB000BA0181508093BA01811104C0289A02C0F2
:101AC0005D9AF1CFFF91EF91BF91AF919F918F916F
:101AD0007F916F915F914F913F912F910F900FBE2A
:101AE0000F901F90189580910A0290910B022091FF
:101AF0000C0230910D02821B930B8F73992708956E
:101B000020910A0230910B0280910C0290910D02FB
:101B10002817390749F0E0910C02F0910D02E653C5
:101B2000FE4F808190E008958FEF9FEF0895209100
:101B30000A0230910B0280910C0290910D0228173D
:101B40003907A9F0E0910C02F0910D02E653FE4F27
:101B5000808120910C0230910D022F5F3F4F2F7337
:101B6000332730930D0220930C0290E008958FEFFD
:101B70009FEF0895CF93DF93C0910A02D0910B029B
:101B80002196CF73DD2780910C0290910D02C8172A
:101B9000D90799F082E00E94880A8F3F2FEF9207C1
:101BA00061F0E0910A02F0910B02E653FE4F808350
:101BB000D0930B02C0930A02DFCFDF91CF9108953B
:101BC00083E00C94EC0C0F931F93CF93DF931F9241
:101BD000CDB7DEB78C01698380912B01882359F042
:101BE00041E050E0BE016F5F7F4F83E00E94B90A81
:101BF000181619063CF081E090E0F8019383828387
:101C000080E090E00F90DF91CF911F910F910895A8
:101C1000FC0120812E5F208342E450E06DEE73E0F2
:101C200080E80C94540BFC0181819081913A59F425
:101C3000813209F04BC047E050E064E271E080E09F
:101C40000E94540B45C0913209F040C0803239F4F3
:101C500067E070E084E291E00E94980B39C0823224
:101C600009F034C0828180932B01809124019091EE
:101C70002501A0912601B0912701803B9440A10548
:101C8000B10531F580912B0180FD12C087E797E700
:101C900090930108809300082BE088E190E00FB654
:101CA000F894A895809360000FBE2093600010C048
:101CB00088E10FB6F89480936000109260000FBE28
:101CC000A895109201081092000802C080E00895C3
:101CD00081E008951092BF011092BE0188EE93E05A
:101CE000A0E0B0E08093C0019093C101A093C20135
:101CF000B093C3018BE491E09093BD018093BC014C
:101D00000895FF920F931F93CF93DF93EC01F62E6C
:101D1000E881F9810480F581E02D09958C01E88145
:101D2000F9810680F781E02D6F2DCE010995C8015C
:101D30009927DF91CF911F910F91FF900895FC019A
:101D400020812F5F208349E150E06FEA74E080E852
:101D50000C94540B45E650E068EC74E080E80C9479
:101D6000540BEF92FF920F931F93CF93DF931F9229
:101D7000CDB7DEB789838B017A0141E050E0BE0127
:101D80006F5F7F4F84E00E94B90AA701B80184E425
:101D90000E94B90A0F90DF91CF911F910F91FF9090
:101DA000EF900895FC0191818081813A31F481E0C6
:101DB000913091F0933089F411C0813271F49B30ED
:101DC00021F4828180932D0105C09A3031F4828103
:101DD00080932C0181E00895089580E0089548E003
:101DE00050E082E00C94B10ECF93DF93DC016838B1
:101DF00018F0E8E7E60F25C0E62FF0E067FF11C016
:101E0000E058F10981E090E001C0880FEA95EAF717
:101E100014969C911497982B14969C931497E0E039
:101E200010C0E15DFB4FE491EE2309F440C0E7FFF1
:101E300008C014968C911497826014968C93149712
:101E4000EF7716968C9116978E1741F117968C9115
:101E500017978E1719F118968C9118978E17F1F025
:101E600019968C9119978E17C9F01A968C911A971A
:101E70008E17A1F01B968C911B978E1779F080E03E
:101E800090E0ED01C80FD91F2E81211102C0EE8311
:101E900005C0019686309105A1F709C0BD016C5FB0
:101EA0007F4FCD010E94EF0E81E090E008C081E0FD
:101EB00090E013969C938E93129780E090E0DF91D0
:101EC000CF910895683818F0E8E7E60F25C0E62FAF
:101ED000F0E067FF12C0E058F10921E030E001C0F6
:101EE000220FEA95EAF72095DC0114963C911497AD
:101EF000322314963C93E0E00FC0E15DFB4FE49188
:101F0000EE2329F1E7FF08C0DC0114962C91149709
:101F10002D7F14962C93EF7720E030E0EE2351F0E4
:101F2000DC01A20FB31F16964C9116974E1302C0F8
:101F300016961C922F5F3F4F2630310579F7BC0172
:101F40006C5F7F4F0E94EF0E81E090E0089580E08B
:101F500090E00895FC011682178210861186128681
:101F600013861482BC016C5F7F4F0C94EF0E1092AD
:101F70001A0210921102109210028DE591E09093D6
:101F80000F0280930E020895CF92DF92EF92FF929C
:101F90000F931F93CF93DF936C017A01EB01E60E51
:101FA000F71E00E010E0CE15DF0561F06991D60163
:101FB000ED91FC910190F081E02DC6010995080F8B
:101FC000191FF1CFC801DF91CF911F910F91FF90A1
:101FD000EF90DF90CF900895F8940C941D10AA1BF9
:101FE000BB1B51E107C0AA1FBB1FA617B70710F004
:101FF000A61BB70B881F991F5A95A9F78095909536
:10200000BC01CD01089597FB072E16F4009407D06C
:1020100077FD09D00E94EF0F07FC05D03EF49095A4
:1020200081959F4F0895709561957F4F0895EE0FAC
:0E203000FF1F0590F491E02D0994F894FFCF66
:10203E0000001B02200001000100100011000E0024
:10204E0007000D00090006000C0004000B00030041
:10205E000200010000E100000000000001014845FF
:10206E004C4C4F20574F524C44003A2D2920283AC1
:10207E0029002A202A200000000000E30DC40F735F
:10208E000D970D800DE00DBA0D00000000810EC4FD
:08209E000FF40E620FAA0F00FF
:00000001FF
