:100000000C9499020C94C1020C94C1020C94C1028C
:100010000C94C1020C94C1020C94C1020C94C10254
:100020000C94C1020C94C1020C94030E0C94B50CF8
:100030000C9440070C94C1020C94C1020C94C102B0
:100040000C94C1020C94C1020C94C1020C94C10224
:100050000C94C1020C94C1020C94C1020C9450097E
:100060000C94C1020C94C1020C94C1020C94C10204
:100070000C94C1020C94C1020C94C1020C94C102F4
:100080000C94C1020C94C1020C94C1020C94C102E4
:100090000C94C1020C94C1020C94C1020C94C102D4
:1000A0000C94C1020C9482050C94C1024D0A500AB2
:1000B000430A470A710A710A710A540A580A5C0A0B
:1000C000620A660A710A6C0A20000000000021041E
:1000D00004040004220A0A000000230A0F0A0F0A7F
:1000E00024060D060B06250902040900260604094C
:1000F0000600270808000000280102020201290862
:10010000040404082A000A040A002B00040E040058
:100110002C00000004042D00000E00002E00000042
:1001200004002F020204080830040A0A0A043104F9
:100130000C040404320E0106080F330F01020906F5
:1001400034080A0A0F02350F0806010E3607080E9A
:10015000090E370F0102040438060906090639079B
:10016000090701013A00040004003B0004000404F4
:100170003C01020402013D000E000E003E0402019B
:1001800002043F060902000640070B0B0806410661
:1001900009090F09420E090E090E4307080808074E
:1001A000440E0909090E450F080E080F460F080EE8
:1001B00008084707080B09074809090F0909490EEC
:1001C0000404040E4A0F010109064B090A0C0A092E
:1001D0004C080808080F4D090F0F0F094E090D0BA9
:1001E0000B094F0609090906500E090E08085106A9
:1001F00009090603520E090E090953070806010EE4
:10020000540702020202550909090906560909099B
:100210000A0457090B0F0F0958090906090959095A
:10022000050204085A0F0204080F5B0302020203CE
:100230005C04040201015D0C0404040C5E040A0069
:1002400000005F000000000F600402000000610079
:100250000709070062080E090E006300070807007F
:100260006401070907006506090E07006603040E0E
:10027000040067000F090F0F68080E0909006906DE
:10028000000606006A02000404086B080B0E090051
:100290006C04040406006D000E0B0B006E000C0ACB
:1002A0000A006F000609060070000E090E087100B2
:1002B00007090701720003040400730003060E001F
:1002C0007404060402007500090907007600090A93
:1002D00004007700090B0600780009060900790080
:1002E000090D020C7A000F040F007B0302060203C3
:1002F0007C04040404047D0C0406040C7E050A003E
:1003000000000000000200080E0000030401000BC2
:1003100000000000000000000000000000000000DD
:1003200004080201104080401020408040800802F4
:10033000040180402010020110801020404004047D
:10034000040404030405020202020403020202027E
:100350000606060606060404020202040000000067
:100360002300260029002C002F000000000025009B
:1003700028002B002E003100000000002400270080
:100380002A002D00300000C18081C112010002024C
:1003900000004041233680000101020001120100EB
:1003A00002000000404123368000010102000118D4
:1003B00003410072006400750069006E006F002048
:1003C000004C004C004300220341007200640075A1
:1003D0000069006E006F0020004C0065006F006E29
:1003E000006100720064006F0004030904080B0040
:1003F00002020201000904000001020200000524BB
:100400000010010524010101042402060524060050
:10041000010705810310004009040100020A0000E1
:1004200000070502024000000705830240000000AB
:10043000000000000000002A2B280000000000003F
:100440000000000000000000000000000000002C80
:100450009EB4A0A1A2A434A6A7A5AE362D373827F6
:100460001E1F20212223242526B333B62EB7B89F82
:100470008485868788898A8B8C8D8E8F90919293C4
:100480009495969798999A9B9C9D2F3130A3AD3562
:100490000405060708090A0B0C0D0E0F10111213A4
:1004A0001415161718191A1B1C1DAFB1B0B5000989
:1004B000040200010300000009210101000122657E
:1004C000000705840340000105010902A10109019B
:1004D000A1008501050919012903150025019503CE
:1004E0007501810295017505810305010930093106
:1004F00009381581257F750895038106C0C005015F
:100500000906A1018502050719E029E71500250163
:100510007501950881029501750881039506750896
:10052000150025650507190029658100C000590FD0
:10053000A61011241FBECFEFDAE0DEBFCDBF11E061
:10054000A0E0B1E0ECE1F2E202C005900D92A03C27
:10055000B107D9F712E0A0ECB1E001C01D92A437B9
:10056000B107E1F715E0C2E3D5E004C02297FE0130
:100570000E940811CE32D107C9F70E94CE080C9410
:10058000DB100C94000080910C010C94E10A4F9256
:100590005F926F927F928F929F92AF92BF92CF9213
:1005A000DF92EF92FF920F931F93CF93DF93FC01A3
:1005B0004B018A01000F111FC0E0D0E060E070E045
:1005C00005531E4F5B01A80CB91C80819181A816B0
:1005D000B906BCF565307105A1F138016C0E7D1EC0
:1005E000CA01412C512C7C01E40EF51E228133817D
:1005F000E216F30614F585309105FCF4C080D18035
:10060000EC9C9001ED9C300DFC9C300D11242A0DCA
:100610003B1D220F331FE480F580E20EF31ED7014D
:10062000ED90FC909301240D351DD901ED92FC92C3
:100630000196B2E04B0E511CD6CF6F5F7F4F2A96CA
:10064000C1CFDF91CF911F910F91FF90EF90DF907D
:10065000CF90BF90AF909F908F907F906F905F9062
:100660004F90089583FF02C098E2892787FD02C05A
:10067000806401C080E094B7977F94BFF894909114
:100680006000986190936000809360007894089572
:10069000EAE7F0E0908180818F77808383B7817F64
:1006A000846083BFF89483B7816083BF7894889512
:1006B00083B78E7F83BF90937A000895DF92EF9285
:1006C000FF920F931F93CF93DF938C01EC0198E07F
:1006D000E92EF12CC031D10538F19E01D12C203208
:1006E000310538F0D39489E0D81619F0369527955E
:1006F000F6CF1092CA018D2D0E9432030E9448034A
:100700008FEF0E943203C70102C0880F991FDA944D
:10071000E2F7C81BD90B2091CA01222319F0C81B8C
:10072000D90BD8CF80E001C081E040910402509104
:10073000050260910602709107020C1B1D0B400F11
:10074000511F611D711D4093040250930502609377
:10075000060270930702DF91CF911F910F91FF90D6
:10076000EF90DF9008958091CA018F5F8093CA0156
:1007700008959695879596958795BC0180E090E0C1
:100780000C94BD09E0EEF0E0808181608083F894F4
:1007900062E370E080E090E00E94BD0984B7877F4B
:1007A00084BF88E10FB6F8948093600010926000D7
:1007B0000FBE1092C1001092BF001092BE001092A6
:1007C000810010927100109285001092840019BC73
:1007D0001092DF001092DE001092F9001092DD00FE
:1007E0001092DA00EEE6F0E0108280E28093D8000A
:1007F00080E88093D70088E08093D900108248E396
:1008000050E060E070E080E090E0DC01E82FF42F41
:100810000994089580910C010E94E10A019711F456
:100820000C94C2030895F8941092C000E1ECF0E03B
:10083000108281EF9FEF909300028093FF019093CD
:10084000BF008093BE00808180838081826080832E
:10085000808181608083E2E7F0E080818460808332
:10086000789408952F923F924F925F926F927F9269
:100870008F929F92AF92BF92CF92DF92EF92FF92B0
:100880000F931F93CF93DF9300D000D0CDB7DEB787
:100890000E9413041092FE011092FD0132E2632EB9
:1008A00031E0732E61E0F30180810E94720A41E021
:1008B000842E42E0942E61E0F40180810E94720A4D
:1008C00050E2A52E51E0B52E61E0F50180810E9435
:1008D000720A6EE1C62E61E0D62E61E0F6018081DB
:1008E0000E94720A7CE1E72E71E0F72E61E0F701C9
:1008F00080810E94720A0AE111E061E0F8018081C2
:100900000E94720A61E0E8E1F1E080810E94720ACF
:10091000E6E14E2EE1E05E2E61E0F20180810E9470
:10092000720AF4E12F2EF1E03F2E61E0F1018081A7
:100930000E94720A22E131E061E0F901808129839D
:100940003A830E94720A40E151E061E0FA0180813D
:100950004B835C830E94720A61E0EEE0F1E08081EB
:100960000E94720A60E080910C010E94720A60E0AD
:1009700080910A010E94720A60E0F30180810E9466
:10098000AB0A60E0F40180810E94AB0A60E0F501EF
:1009900080810E94AB0A60E0F60180810E94AB0A70
:1009A00060E0F70180810E94AB0A61E0F80180817C
:1009B0000E94AB0A61E0E8E1F1E080810E94AB0AAD
:1009C00061E0F20180810E94AB0A61E0F101808167
:1009D0000E94AB0A61E029813A81F90180810E947D
:1009E000AB0A61E04B815C81FA0180810E94AB0A15
:1009F00061E0EEE0F1E080810E94AB0A0F900F9081
:100A00000F900F90DF91CF911F910F91FF90EF907A
:100A1000DF90CF90BF90AF909F908F907F906F901E
:100A20005F904F903F902F900C940A040F931F9368
:100A3000CF93DF938C0161E080911A010E94AB0A91
:100A400061E0809118010E94AB0A61E0809116017B
:100A50000E94AB0A61E0809114010E94AB0A61E040
:100A6000809112010E94AB0A8AE0809FE001819F81
:100A7000D00D1124C553DE4F6881809122010E9460
:100A8000AB0A6A81809101020E94AB0A6C8180915D
:100A900020010E94AB0A6E8180911E010E94AB0A68
:100AA000688580911C010E94AB0A0115110521F493
:100AB00060E080911A011BC00130110521F460E053
:100AC0008091180114C00230110521F460E080917A
:100AD00016010DC00330110521F460E0809114016E
:100AE00006C00430110549F460E080911201DF91E5
:100AF000CF911F910F910C94AB0ADF91CF911F9171
:100B00000F9108951F920F920FB60F9211242F93F9
:100B10003F934F935F936F937F938F939F93AF9385
:100B2000BF93EF93FF938091FF0190910002909308
:100B3000BF008093BE008091FD019091FE01892B42
:100B400061F460910801809110010E94AB0A6091EC
:100B5000060180910E010E94AB0A8091FD019091E7
:100B6000FE01853091053CF465E070E00E94F210D2
:100B70000E9416053EC00597E1F560E080912201D4
:100B80000E94AB0A60E0809101020E94AB0A60E023
:100B9000809120010E94AB0A60E080911E010E94BA
:100BA000AB0A60E080911C010E94AB0A60E080917A
:100BB0001A010E94AB0A60E0809118010E94AB0A02
:100BC00060E0809116010E94AB0A60E08091140100
:100BD0000E94AB0A60E0809112010E94AB0A60E0C3
:100BE000809110010E94AB0A60E080910E010E948A
:100BF000AB0A8091FD019091FE0101968A3091052A
:100C00002CF49093FE018093FD0104C01092FE012C
:100C10001092FD01FF91EF91BF91AF919F918F9144
:100C20007F916F915F914F913F912F910F900FBEE8
:100C30000F901F901895FC01EA59FF4F7183608354
:100C4000FC0111821082FB0101900020E9F731972D
:100C5000E61BF70BDC01A859BF4FED93FC930895F9
:100C6000CF92DF92EF92FF920F931F93CF93DF9378
:100C7000CDB7DEB76C970FB6F894DEBF0FBECDBF11
:100C80009C01DC010D911C91C80165E070E00E949F
:100C9000F210CB01F901E859FF4FE080F180B70174
:100CA0000E94F210F901EA59FF4FC080D180F6018D
:100CB000E80FF91F6081DE015796E6E06E02B00191
:100CC000112440E050E0685F7F4FFB01E40FF51F07
:100CD000E491ED934F5F5F4F46305105B1F70196B8
:100CE0008E159F0534F5B7010E94F2108C0D9D1DE5
:100CF000DC018C91DE011196E6E08E02C001112428
:100D000040E050E0885F9F4FFC01E40FF51FE49145
:100D1000ED934F5F5F4F46305105B1F76E01F8E13B
:100D2000CF0ED11CCE010296F901AE01435E5F4F9A
:100D30000CC0DE011196E8ECF0E084918D933196C1
:100D400040E0EE3CF407C9F7E9CFD6017D916D0193
:100D5000DC016D91CD0173FBFF24F0F8F282138268
:100D600072FBFF24F0F8F482158271FBFF24F0F887
:100D7000F68217827170708711861386128663FB64
:100D8000772770F97487158662FB772770F9768765
:100D9000178661FB772770F9708B118A6170628BFF
:100DA000138A158A148A7496C416D50671F68AE0D9
:100DB00090E09A8B898B65E070E07C8B6B8B2E5F6B
:100DC0003F4F3E8B2D8BC8010E94F21040E050E057
:100DD000BC01CE0141960E94C7026C960FB6F894F2
:100DE000DEBF0FBECDBFDF91CF911F910F91FF905E
:100DF000EF90DF90CF900895BF92CF92DF92EF9265
:100E0000FF920F931F93CF93DF93EC016B0100E0F0
:100E100010E07C0188E6E80EF11C55E0B52EF701E4
:100E200020813181B29EC001B39E900D112408171C
:100E30001907E4F4CE010E943006288139812F5F22
:100E40003F4F39832883F70140815181B49EC0010F
:100E5000B59E900D11242817390714F019821882B5
:100E6000C6010E94B9030F5F1F4FD9CFDF91CF9109
:100E70001F910F91FF90EF90DF90CF90BF9008955A
:100E80001F920F920FB60F9211242F933F934F93FF
:100E90005F936F937F938F939F93AF93BF93EF93E2
:100EA000FF930E94B303FF91EF91BF91AF919F9188
:100EB0008F917F916F915F914F913F912F910F9003
:100EC0000FBE0F901F901895EF92FF920F931F93F4
:100ED000CF93DF93CDB7DEB7CA56D1090FB6F894DA
:100EE000DEBF0FBECDBF81E090E0909309018093FB
:100EF000080190930701809306016EE271E0CE0134
:100F000001960E941B0662E370E0CE0101960E94EA
:100F1000FC068EE190E00E945E031092090110929F
:100F2000080110920701109206010EE110E08EE117
:100F300090E00E945E030E94C302019729F00150D5
:100F400011090115110599F781E090E090930901CD
:100F50008093080190930701809306016BE371E091
:100F6000CE0101960E941B0662E370E0CE0101965D
:100F70000E94FC068CE291E00E945E03109209013F
:100F80001092080110920701109206010CE211E084
:100F900082E390E00E945E030E94C302019729F061
:100FA000015011090115110599F781E090E0909326
:100FB000090180930801909307018093060167E47B
:100FC00071E0CE0101960E941B0662E370E0CE0143
:100FD00001960E94FC068CE291E00E945E03109252
:100FE00009011092080110920701109206010EE10A
:100FF00010E082E390E00E945E030E94C30201972A
:1010000029F0015011090115110599F781E090E0CF
:101010009093090180930801909307018093060142
:1010200068E671E0CE0101960E941B0662E370E063
:10103000CE0101960E94FC068CE291E00E945E03C4
:1010400010920901109208011092070110920601F6
:1010500000E010E0EE24E394F12C0F5F1F4F82E3D9
:1010600090E00E945E030E94C302019709F467C0EA
:101070000436110549F4F0920901E0920801F0925A
:101080000701E092060127C00238110549F41092C9
:1010900009011092080110920701109206011BC06D
:1010A0000C3B82E0180729F4F0920901E092080154
:1010B0002CC0063C82E0180729F410920901109216
:1010C00008011DC0083785E0180729F4F0920701D0
:1010D000E092060114C0023885E01807B1F41092BE
:1010E0000701109206016FE771E0CE0101960E94A0
:1010F0001B0662E370E0CE0101960E94FC06083BED
:101100008BE0180709F0A9CF1AC0043388E018074C
:1011100049F4F0920901E0920801F0920701E0928F
:1011200006019BCF0E3388E0180749F7109209019A
:101130001092080110920701109206018ECFC65935
:10114000DF4F0FB6F894DEBF0FBECDBFDF91CF915A
:101150001F910F91FF90EF9008950E94320410921A
:10116000C2011092C3011092C4011092C5011092E5
:10117000C6011092C7011092C8011092C9011092C5
:10118000C1011092C00181E090E090930901809329
:101190000801909307018093060108950E94E309D6
:1011A0008CE092E00E94E50D109209011092080176
:1011B00010920701109206010E94AD088091640010
:1011C00081608093640080916400826080936400F9
:1011D00080916400846080936400809164008068E2
:1011E00080936400809164008860809364008091A3
:1011F00064008064809364008091650088608093BF
:101200006500809165008160809365008091650034
:101210008068809365008091D80080628093D800B8
:1012200089B58D7F89BD8091D8008F778093D80054
:101230008091E00081608093E0008091E1008E7FEA
:101240008093E1008091D80080628093D80089B5B6
:101250008D7F89BD8091C50088608093C500809195
:10126000C70081FFFCCF8091C5008E7F8093C500B1
:101270008091C5008B7F8093C50082E090E020E8DC
:101280000FB6F89420936100809361000FBEC0E018
:10129000D0E00E9464072097E1F30E940000F9CF9C
:1012A0001F920F920FB60F9211242F933F938F939B
:1012B0009F93AF93BF938091040290910502A091F8
:1012C0000602B09107023091030223E0230F2D376D
:1012D00020F40196A11DB11D05C026E8230F02963A
:1012E000A11DB11D20930302809304029093050277
:1012F000A0930602B0930702809108029091090220
:10130000A0910A02B0910B020196A11DB11D80931C
:10131000080290930902A0930A02B0930B02BF91B6
:10132000AF919F918F913F912F910F900FBE0F9092
:101330001F9018953FB7F894809108029091090288
:10134000A0910A02B0910B0226B5A89B05C02F3FC1
:1013500019F00196A11DB11D3FBF6627782F892F77
:101360009A2F620F711D811D911D42E0660F771F3C
:10137000881F991F4A95D1F70895CF92DF92EF9277
:10138000FF92CF93DF936B017C010E949A09EB01DE
:10139000C114D104E104F10479F00E949A096C1B94
:1013A0007D0B683E7340A0F381E0C81AD108E108C4
:1013B000F108C851DC4FECCFDF91CF91FF90EF9057
:1013C000DF90CF900895789484B5826084BD84B511
:1013D000816084BD85B5826085BD85B5816085BD30
:1013E000EEE6F0E0808181608083E1E8F0E0108249
:1013F000808182608083808181608083E0E8F0E08A
:10140000808181608083E1E9F0E080818260808377
:10141000808181608083E0E9F0E080818160808369
:10142000E1ECF0E080818460808380818260808351
:10143000808181608083E3ECF0E080818160808343
:10144000E0ECF0E0808182608083E2ECF0E080817B
:1014500081608083EAE7F0E080818460808380811E
:1014600082608083808181608083808180688083C6
:10147000089590E0FC013197EE30F10590F5EA5ABD
:10148000FF4F0C940611809180008F7703C08091EC
:1014900080008F7D80938000089584B58F7702C08F
:1014A00084B58F7D84BD0895809190008F7707C0AB
:1014B000809190008F7D03C080919000877F809302
:1014C000900008958091C0008F7703C08091C00084
:1014D0008F7D8093C00008958091C200877F8093A4
:1014E000C2000895CF93DF9390E0FC01E05EFC4FD3
:1014F0002491FC01E25CFC4F8491882349F190E047
:10150000880F991FFC01E858FC4FA591B4918659AA
:101510009C4FFC01C591D4919FB7611108C0F8940C
:101520008C91209582238C93888182230AC062301B
:1015300051F4F8948C91322F309583238C938881C9
:10154000822B888304C0F8948C91822B8C939FBF4C
:10155000DF91CF9108950F931F93CF93DF931F9245
:10156000CDB7DEB7282F30E0F901EE5FFC4F849154
:10157000F901E05EFC4F1491F901E25CFC4F04912B
:101580000023C9F0882321F069830E94390A698108
:10159000E02FF0E0EE0FFF1FE659FC4FA591B4914C
:1015A0009FB7F8948C91611103C01095812301C0FD
:1015B000812B8C939FBF0F90DF91CF911F910F9143
:1015C0000895CF93DF93282F30E0F901EE5FFC4FB1
:1015D0008491F901E05EFC4FD491F901E25CFC4F8B
:1015E000C491CC2391F081110E94390AEC2FF0E0D4
:1015F000EE0FFF1FE45AFC4FA591B4912C912D23BF
:1016000081E090E021F480E002C080E090E0DF9192
:10161000CF910895615030F02091F100FC012083BA
:101620000196F8CF289884E68093130208952FB787
:10163000FC012083F89467706093E9000895CF93CC
:10164000DF931F92CDB7DEB7682FCE0101960E94BF
:10165000170B8091F20099819FBF0F90DF91CF917E
:101660000895FF920F931F93CF93DF9300D0CDB7D0
:10167000DEB7F62E8A0190911202992311F057FFDE
:1016800003C08FEF9FEF2BC0682FCE0101967A83A6
:101690000E94170B8091F20090E0A8017A818017D8
:1016A00091070CF4AC01EF2DF72FF40E84E6FE1633
:1016B00039F02898809313029091F1009193F7CF1D
:1016C0004115510521F08091F200882321F0898194
:1016D0008FBFCA0104C08BE68093E800F8CF0F905B
:1016E0000F90DF91CF911F910F91FF900895CF93AD
:1016F000DF931F92CDB7DEB741E050E0BE016F5FD0
:101700007F4F0E94310B019719F4898190E002C04C
:101710008FEF9FEF0F90DF91CF910895CF93DF93DD
:101720001F92CDB7DEB7682FCE0101960E94170B2E
:101730009091E800892F807295FF04C09091F2008B
:1017400080E4891B99819FBF0F90DF91CF9108950D
:101750004F925F926F927F928F929F92AF92BF92C1
:10176000CF92DF92EF92FF920F931F93CF93DF936D
:101770001F92CDB7DEB7582E7B01A42E952E8091F7
:101780001202882369F0042F152F8AEFB82E852DB9
:101790008072782E9AE3892E852D8074682E11C070
:1017A0008FEF9FEF53C0852D0E948E0B482E811125
:1017B0000CC0BA94A9F361E070E080E090E00E9470
:1017C000BD090115110579F737C0282F30E0021740
:1017D00013070CF4402EC42CD12C0C191D09652DB7
:1017E000CE0101960E94170B772039F04A948FEFB3
:1017F0004816B1F01092F100F9CFF701842D57FE91
:1018000007C0815058F094919093F1003196F9CF30
:10181000815020F091919093F100FACFEC0CFD1CD7
:101820008091E80085FF0FC00115110511F46110CA
:101830000AC089818FBFC5CF5D9884E6809314026A
:101840008A2D992D03C08092E800F3CF0F90DF918D
:10185000CF911F910F91FF90EF90DF90CF90BF90AD
:10186000AF909F908F907F906F905F904F90089572
:101870001092E900109211021092100290930F0240
:1018800080930E020895CF93DF93FB0120E030E0B8
:10189000DEEF24173507A1F187FF02C0C49101C014
:1018A000C081A0911002B091110260910E0270915E
:1018B0000F02A617B707B4F49091E8009570E1F312
:1018C0009091E80092FD1EC0C093F100609110025B
:1018D000709111026F5F7F4F6F737727672B11F441
:1018E000D093E80060911002709111026F5F7F4FFA
:1018F00070931102609310022F5F3F4F3196C9CF52
:10190000C90102C08FEF9FEFDF91CF9108951F9320
:10191000CF93DF931F92CDB7DEB7162F2091E8004B
:1019200022FFFCCF612F79830E940A0B8BEF8093FB
:10193000E800812F7981972F0F90DF91CF911F9130
:101940000895CF93DF931F92CDB7DEB71982CE01F2
:1019500001960E94F70ECE0101960E948E0F89819A
:1019600090E00F90DF91CF9108951F920F920FB6E4
:101970000F921124EF92FF920F931F932F933F9397
:101980004F935F936F937F938F939F93AF93BF9387
:10199000EF93FF93CF93DF93CDB7DEB76297DEBFB0
:1019A000CDBF1092E9008091E80083FFE7C068E0B6
:1019B000CE010A960E940A0B82EF8093E8009A8576
:1019C00097FF05C08091E80080FFFCCF03C08EEF39
:1019D0008093E800892F807609F0B5C08B8581114E
:1019E00005C01092F1001092F100C1C0282F2D7F88
:1019F000213009F4BCC0853049F48091E80080FFB3
:101A0000FCCF8C8580688093E300B1C0863009F0FC
:101A100072C02D85E888F988223071F580E090E069
:101A20002A8B0E94380C0E94A10C99E08E010F5F56
:101A30001F4FF801392F11923A95E9F799832A89B6
:101A40002A8391E09E8390E898879AEF9987209166
:101A5000100230911102275F3F4F3C832B838D830F
:101A6000C7010E94380C49E050E0B80180E00E94B4
:101A7000430C0E94A10C7BC0C7012A8B0E94380C2A
:101A80002A89223241F482E290E00E94990F892B48
:101A900009F06DC070C0213069F488899989089770
:101AA00011F420930D0280910D02882389F06BE8D8
:101AB00073E016C0233009F05EC08C85882359F08E
:101AC000823061F0813009F056C06FEA73E008C0DF
:101AD0006DE973E005C069EE73E002C067EC73E086
:101AE0006115710509F447C0FB01449150E080E89D
:101AF0000E94430C3CC0873009F43DC0883021F47B
:101B000081E08093F10033C0893089F5937099F5B5
:101B1000E7E8F3E081E021E096E38093E900209399
:101B2000EB0034913093EC009093ED008F5F319691
:101B3000853099F78EE78093EA001092EA008C8551
:101B40008093120214C0888999890E94380C8E856E
:101B5000811105C0CE010A960E94020F06C0823094
:101B600051F4CE010A960E94C10F882321F08EEF16
:101B70008093E80003C081E28093EB0062960FB689
:101B8000F894DEBF0FBECDBFDF91CF91FF91EF91F3
:101B9000BF91AF919F918F917F916F915F914F9185
:101BA0003F912F911F910F91FF90EF900F900FBEDB
:101BB0000F901F9018958093E9008091F200882380
:101BC00019F08AE38093E80008951092120281E0F0
:101BD0008093D70080EA8093D80082E189BD09B460
:101BE00000FEFDCF61E070E080E090E00E94BD0962
:101BF00080E98093D8008CE08093E2001092E000AE
:101C0000559A209A08951F920F920FB60F921124A1
:101C10002F933F934F935F936F937F938F939F93F4
:101C2000AF93BF93EF93FF938091E1001092E10097
:101C300083FF0FC01092E90091E09093EB001092A7
:101C4000EC0092E39093ED001092120298E09093D2
:101C5000F00082FF26C083E00E94DB0D82E00E943C
:101C60001F0B882321F085E192E00E94A90E80914C
:101C70001402882339F08091140281508093140259
:101C8000882369F080911302882359F08091130210
:101C9000815080931302811104C0289A02C05D9A7A
:101CA000F1CFFF91EF91BF91AF919F918F917F9174
:101CB0006F915F914F913F912F910F900FBE0F90B9
:101CC0001F901895809163029091640220916502A3
:101CD00030916602821B930B8F7399270895209190
:101CE0006302309164028091650290916602281728
:101CF000390749F0E0916502F0916602ED5DFD4F14
:101D0000808190E008958FEF9FEF08952091630206
:101D1000309164028091650290916602281739071C
:101D2000A9F0E0916502F0916602ED5DFD4F8081C2
:101D300020916502309166022F5F3F4F2F7333274A
:101D4000309366022093650290E008958FEF9FEF35
:101D50000895CF93DF93C0916302D09164022196DE
:101D6000CF73DD278091650290916602C817D9076D
:101D700099F082E00E94770B8F3F2FEF920761F07E
:101D8000E0916302F0916402ED5DFD4F8083D0939A
:101D90006402C0936302DFCFDF91CF91089583E0A7
:101DA0000C94DB0D0F931F93CF93DF931F92CDB74E
:101DB000DEB78C01698380912B01882359F041E0C3
:101DC00050E0BE016F5F7F4F83E00E94A80B1816A2
:101DD00019063CF081E090E0F8019383828380E073
:101DE00090E00F90DF91CF911F910F910895FC012A
:101DF00020812E5F208342E450E06DEE73E080E8A6
:101E00000C94430CFC0181819081913A59F4813208
:101E100009F04BC047E050E064E271E080E00E94CE
:101E2000430C45C0913209F040C0803239F467E07C
:101E300070E084E291E00E94870C39C0823209F0A0
:101E400034C0828180932B018091240190912501DF
:101E5000A0912601B0912701803B9440A105B105D6
:101E600031F580912B0180FD12C087E797E79093B1
:101E70000108809300082BE088E190E00FB6F89409
:101E8000A895809360000FBE2093600010C088E189
:101E90000FB6F89480936000109260000FBEA89572
:101EA000109201081092000802C080E0089581E0BD
:101EB0000895109218021092170288EE93E0A0E0A5
:101EC000B0E08093190290931A02A0931B02B09382
:101ED0001C0283EA91E09093160280931502089504
:101EE000FF920F931F93CF93DF93EC01F62EE881BF
:101EF000F9810480F581E02D09958C01E881F98153
:101F00000680F781E02D6F2DCE010995C801992734
:101F1000DF91CF911F910F91FF900895FC012081D7
:101F20002F5F208349E150E06FEA74E080E80C9471
:101F3000430C45E650E068EC74E080E80C94430CF8
:101F4000EF92FF920F931F93CF93DF931F92CDB722
:101F5000DEB789838B017A0141E050E0BE016F5FFB
:101F60007F4F84E00E94A80BA701B80184E40E947F
:101F7000A80B0F90DF91CF911F910F91FF90EF90E1
:101F80000895FC0191818081813A31F481E09130A2
:101F900091F0933089F411C0813271F49B3021F4B7
:101FA000828180932D0105C09A3031F48281809323
:101FB0002C0181E00895089580E0089548E050E004
:101FC00082E00C94A00FCF93DF93DC01683818F007
:101FD000E8E7E60F25C0E62FF0E067FF11C0E05804
:101FE000F10981E090E001C0880FEA95EAF71496C4
:101FF0009C911497982B14969C931497E0E010C032
:10200000E15DFB4FE491EE2309F440C0E7FF08C017
:1020100014968C911497826014968C931497EF7792
:1020200016968C9116978E1741F117968C911797EB
:102030008E1719F118968C9118978E17F1F0199642
:102040008C9119978E17C9F01A968C911A978E1742
:10205000A1F01B968C911B978E1779F080E090E091
:10206000ED01C80FD91F2E81211102C0EE8305C0DA
:10207000019686309105A1F709C0BD016C5F7F4FC5
:10208000CD010E94DE0F81E090E008C081E090E089
:1020900013969C938E93129780E090E0DF91CF91FE
:1020A0000895683818F0E8E7E60F25C0E62FF0E05D
:1020B00067FF12C0E058F10921E030E001C0220FB3
:1020C000EA95EAF72095DC0114963C9114973223A7
:1020D00014963C93E0E00FC0E15DFB4FE491EE23EA
:1020E00029F1E7FF08C0DC0114962C9114972D7F8D
:1020F00014962C93EF7720E030E0EE2351F0DC01D2
:10210000A20FB31F16964C9116974E1302C0169647
:102110001C922F5F3F4F2630310579F7BC016C5F71
:102120007F4F0E94DE0F81E090E0089580E090E014
:102130000895FC0116821782108611861286138676
:102140001482BC016C5F7F4F0C94DE0F10927302FF
:1021500010926A021092690285EB91E090936802F6
:10216000809367020895CF92DF92EF92FF920F93D0
:102170001F93CF93DF936C017A01EB01E60EF71EFC
:1021800000E010E0CE15DF0561F06991D601ED9118
:10219000FC910190F081E02DC6010995080F191FEF
:1021A000F1CFC801DF91CF911F910F91FF90EF9078
:1021B000DF90CF900895F8940C940C11AA1BBB1BD0
:1021C00051E107C0AA1FBB1FA617B70710F0A61B37
:1021D000B70B881F991F5A95A9F780959095BC0158
:1021E000CD01089597FB072E16F4009407D077FDD4
:1021F00009D00E94DE1007FC05D03EF49095819531
:102200009F4F0895709561957F4F0895EE0FFF1FC2
:0C2210000590F491E02D0994F894FFCFA4
:10221C0000007402200001000100100011000E00EB
:10222C0007000D00090006000C0004000B00030061
:10223C000200010000E10000000000000101204D3F
:10224C004552525920584D41532100204D45525270
:10225C005920584D415300204E4F57204252494E61
:10226C004720555320534F4D452046494747592049
:10227C0050554444494E470020414E44204120488B
:10228C0041505059204E455720594541522100206C
:10229C00444F204920444F204556455259544849F3
:1022AC004E4720524F554E4420484552453F000062
:1022BC00000000D20EB310620E860E6F0ECF0EA968
:1022CC000E00000000700FB310E30F5110991000B6
:00000001FF
